:020000040800F2
:1000000000040020D9020008DB020008DB0200081F
:10001000DB020008DB020008DB020008DB0200084C
:10002000DB020008DB020008DB02000811A7000861
:10003000DB020008DB020008DB020008DB0200082C
:10004000DB020008DB020008DB020008DB0200081C
:10005000DB020008DB02000891BE000861BE000858
:1000600031BE000801BE0008D1BD0008DB02000857
:10007000DB020008DB020008DB020008DB020008EC
:10008000DB020008DB020008DB020008DB020008DC
:10009000DB020008DB020008DB02000861BD00088B
:1000A00081BC0008A1BC000891BC000871BC00081C
:1000B000B1BB000871BB0008DB020008DB020008CE
:1000C000DB020008DB020008DB020008DB0200089C
:1000D000DB020008DB020008DB02000851BB00085D
:1000E000E1BC0008DB020008DB020008DB020008BC
:1000F000DB020008DB020008DB020008DB0200086C
:10010000DB020008DB020008DB020008DB0200085B
:10011000DB020008DB020008DB020008DB0200084B
:10012000DB020008DB020008DB020008DB0200083B
:10013000DB020008DB020008DB020008DB0200082B
:10014000DB020008DB020008DB020008DB0200081B
:10015000DB020008DB02000831BB0008DB020008FC
:10016000DB020008DB020008DB020008DB020008FB
:10017000DB020008DB020008DB020008DB020008EB
:10018000DB020008DB020008DB020008DB020008DB
:10019000DB020008DB020008DB020008DB020008CB
:1001A000DB020008DB020008DB020008DB020008BB
:1001B000DB020008DB020008DB020008DB020008AB
:0C01C000D5FD000871A5000871CC0008F6
:1002000072B6274880F30888264880F30988264874
:100210004EF60851CEF200010860022080F31488E7
:10022000BFF36F8F0BF094FE0BF052FB4FF0553085
:100230001E491B4A91423CBF41F8040BFAE71C4996
:10024000184A91423CBF41F8040BFAE719491A4A8F
:100250001A4B9A423EBF51F8040B42F8040BF8E7E0
:1002600000201749174A91423CBF41F8040BFAE7B6
:100270000BF026FE0BF064FE134C144DAC4203DA77
:1002800054F8041B8847F9E70AF09AFA104C114D0C
:10029000AC4203DA54F8041B8847F9E70BF048BE78
:1002A00000040020000800200000000800000020DA
:1002B00000040020C438010800080020B811002004
:1002C000B8110020D8260020C0010008CC01000889
:1002D000CC010008CC01000892E700F000F8FEE72E
:1002E0002DE9F04FC1F80CD0C3689D46BDE8F08FF2
:1002F000002383F311882846A04700200AF018FA4B
:100300000AF046FA00DFFEE7F0B44C1E05464E2C1C
:100310003FD8DFE804F0282828283E3E3E3E3C3CFB
:10032000283C3C3C3C3C3C3C3C3C3C3C3C3E2A2A43
:100330002A2A2A2A2A2A283C3C3C3C3C3E3C2A29A0
:10034000283E282A2A293E3E3C3C3C2828282828AA
:100350003C28283C283E3E3C3C3C3E3E3E3C3C3C0F
:10036000282A282A2A00A2B19BB1D5E90540844257
:100370000FDA2F692601B81901344FF0000CC0F8CC
:1003800004C06C61B955C0E90223F0BC7047002A73
:10039000EBD10020F0BC704710B4C3681C78522C1D
:1003A0000A460DD04F2C02D0084610BC7047C16AD7
:1003B0000331C16220210133C36010BC0023A3E7D5
:1003C000C16A0231C1621F21F5E700BF002A4ED089
:1003D00070B505460E4614462378013B4E2B2CD8AB
:1003E000DFE803F0373737402B2B282837373737EC
:1003F00037373737373737373737372B3737373799
:10040000373737373737303037372B373737372CA1
:10041000373737372B283737373737373737373787
:100420003737372B2B372C2C2C2C2B3737373737AC
:1004300037373700E468002CCED170BDA468002C9B
:10044000CAD1FAE7A2681378052B03D133680133C8
:100450003360A26831462846FFF7B8FFE468002CF5
:10046000BAD1EAE72B6801332B60A268F2E7704744
:100470007AB32DE9F0410D468F180446D0F80011EB
:10048000013F013D4FF0000809E00B46BD4201F17C
:100490000101C4F80011E65484F8046117D0FF2963
:1004A00015F8016FF1D1D4E9423284F8FF8020467B
:1004B0009847D4F828310133C4F8283100230121AA
:1004C000BD42C4F80011E65484F80461E7D1BDE8E8
:1004D000F08170472DE9F04101680E786E2E2ED024
:1004E000A6F13003092B35D84FF0000E00236FF032
:1004F0000048DFF864C002E0B3EBD40F1ADC01312E
:1005000001600D78A5F1300203EB8303A8EB020430
:10051000D2B206EB4307092AACFB04342E46A7F1FE
:100520003003E9D9BEF1000F01D0C7F130031846FE
:10053000BDE8F0814FF0FF331846BDE8F0814B1C59
:1005400003604E78A6F13002092A03D819464FF00D
:10055000010ECBE70023EAE7CDCCCCCCD0E90532C5
:10056000934270B50EDA01691A018C180133002626
:10057000412566600C3083608D54FFF7ABFFA060AF
:10058000204670BD0024204670BD00BF10B5C36872
:100590001A785F2A04460DD06E2A0DD00C30FFF772
:1005A00099FF013008D4E3681A785F2A04D1013337
:1005B000E36010BD0020FAE74FF0FF3010BD00BF30
:1005C000F8B5C3681A78542A15D10133C3600446BC
:1005D000FFF7DCFF051E0EDBD4E9053293420ADA91
:1005E00021691A01881801330027052647606361D5
:1005F0008E548560F8BD0020F8BD00BF2DE9F041A4
:1006000004460C30FFF766FF051E3DDDE6686368B3
:100610009B1B9D4236DCA26873195207E36004D528
:10062000725D242A04BF0133E360092DD4E9057803
:1006300011DCB84526DD206900EB071000220137E8
:1006400042606761F6B1C0E9026500234360037050
:10065000A062BDE8F0810822184930460DF01CFA6E
:1006600030B9327A2E2A12D05F2A10D0242A0ED026
:10067000B84507DD206900EB071000220137426012
:100680006761E0E70020E3E70020BDE8F081737ACE
:100690004E2BEDD1E36A16335D1BB845E562F1DD03
:1006A0002169074D3A0188180023013767614360CB
:1006B0008B541523C0E90253CAE700BF802A010802
:1006C0008C2A010870B5C368866A1A78422A0446E3
:1006D0000D460FD10133E3602046FFF78FFF2A4616
:1006E00003464B212046FFF70FFEE3681A78422AA3
:1006F0000546EFD0A662284670BD00BF2DE9F8433D
:10070000C3681A78532A30D15A1CC2605A780546F9
:1007100092B39A1CC2605A785F2A42D0A2F1300488
:10072000E3B2092B24D800210DE0303B99421CD8BC
:10073000E9680A78481C1AB1E8600A785F2A39D05B
:10074000A2F130041946E4B201EBC103092CA2F175
:10075000410002EB8303E8D9192806D801EBC10355
:1007600002EB8303373B9942E2D90020BDE8F883CE
:10077000A2F14103192BD6D9AB6803F00803002B73
:1007800014BF0124002400D1B1B9344B742103F10A
:10079000A80001E013F81C1F914214D08342F9D144
:1007A000E3E700232A6A9A42DFD9EA6952F8230074
:1007B000BDE8F8830133F5E7EB681B78433B012B79
:1007C00098BF0C46E1E75E69D5E90520AEB18242EB
:1007D000D3F818E03FDAD5F810C017010CEB070189
:1007E00001324FF000094FF01808C1F804906A6117
:1007F0000CF80780C1E9026EA9623CB3D3E903613A
:10080000EB6A82420B44EB6223DA2C691301E01895
:1008100001324FF0000C1827C0F804C06A61E75499
:10082000C0E90261EB681B78422B9FD10146284644
:10083000FFF748FF002898D0D5E90832934294DAB0
:10084000E9695A1C41F823002A628FE7D3E9016164
:10085000D6E70020E6E70021CEE700BFE01D010853
:1008600038B5044629B9C3681A787AB15A1CC260EF
:100870001978682919D0762908D104F10C05284681
:10088000FFF728FEE3681A785F2A01D0002038BD00
:100890000133E3602846FFF71DFEE3681A785F2AFC
:1008A000F4D10133E360012038BD04F10C00FFF7FF
:1008B00011FEF2E7C3681A785F2A01D00120704761
:1008C00010B55A1C044640F80C2F5A785F2A04D001
:1008D000FFF700FEC043C00F10BD0233E360FFF717
:1008E000F9FD002809DB092805DDE3681A785F2A8D
:1008F00003D10133E360012010BD002010BD00BF13
:1009000070B103782F2B0FD1002904DC09E00378A4
:100910002F2B09D131B1C06801390028F7D17047B8
:10092000704701D18068704700207047D0F81031BF
:1009300033B109685B680029DB6804DB1846DFE730
:100940000122C0F818211846704700BF002943D083
:1009500038B505460C4623784B2B27D8DFE803F043
:100960002E26262626302E2B2B2626262626262603
:1009700026262626262626262E262626262626260F
:10098000262626262626262E262626262E262626F7
:10099000262E2B26262626262626262626262626EA
:1009A0002E2E2626262E2E2E26262E2EA1682846D0
:1009B000FFF7CCFF18B9E468002CCCD1002038BD7B
:1009C00004F108012846FFF7B1FF0028F6D00378AC
:1009D0002F2BF4D00020F2E7002070472DE9F041E2
:1009E0001446D4E9025752684B1C1344AB4282B000
:1009F0000E46804611D86FB9D4E900033246184438
:100A0000414607F085F8D4E9003233449F546368C7
:100A10001E44666002B0BDE8F081002FFAD16DB1CE
:100A20006D00AB42FCD8294620680DF063F950B147
:100A3000E7682060A560002FDED0EBE7022B4FF0C7
:100A40000205EDD8EFE7019020680CF065FD019BF1
:100A50000122C4E90033C4E90232DBE7F8B5C26819
:100A600013784C2B14D1531CC36051785F29054671
:100A700055D05A290ED10133EB600021284601F0F0
:100A8000C5FBEB681A78452A02D10133EB60F8BD4B
:100A90000020F8BD00F0A8FC0028F9D00378272B2F
:100AA00034D0EE6833786E2B2AD03C21452B40D0D1
:100AB000002BEDD0334601E0002CE9D00133EB6090
:100AC0001C78452CF8D19C1BD5E905239A422EDAD7
:100AD000D5F810E04FEA021C0EEB0C0301320027A0
:100AE0005F606A611EB314B35F600EF80C70C3E9F7
:100AF000026402462846FFF707FCEB681A78C2E753
:100B0000721CEA6073783D211646CFE783681A7C31
:100B1000002AC6D05A68EB6A9B1AEB62C1E7931CA5
:100B2000C36092785A2A18BF0020ACD1A3E70023F3
:100B3000DFE70024C8E700BFC1680B784C2B00F04A
:100B40009280542B00F09080732B2DE9F0410446E5
:100B50004ED0662B2DD0A3F13002092A0CD82046A6
:100B600001F0EAF90546002879D0E3681A78492AA5
:100B70007BD02846BDE8F0816F2B4AD0692B63D12A
:100B80004B786C2B00F09380204601F021F805464D
:100B9000002864D00378312B41D0322B00F04A81F9
:100BA000332B5CD1E3681A785F2A00F03B81002781
:100BB0009BE04B78702BE7D18B1CC3608B78542B58
:100BC00000F04D81FFF7E2FCC34333F0004346D011
:100BD0000130D4E90532934241DA21691A018D18B6
:100BE0000133002706266F6063618E54A860C0E75A
:100BF0004B78722B46D0702BC6D10231C160FFF703
:100C00009BFF002302464A212046BDE8F041FFF742
:100C10007BBB4B786E2BB7D10231C1609FE78768F1
:100C2000E36ABA683E68C649023A1344E362304652
:100C300007F01AF8002800F02E81FF68032F0ED865
:100C4000DFE807F06E44B976742B9DD14B786C2B9E
:100C50009AD100F0C9FBE1684B78054643BB0025FB
:100C60002846BDE8F081F9E6AAE40133E3602046B6
:100C700000F0ACF92A46034604212046BDE8F041C5
:100C8000FFF742BB0231C16000F0AEFB05462046D3
:100C900001F052F9E3681A78492A064633D0034630
:100CA0002A4620460121BDE8F041FFF72DBB002573
:100CB0000231E1602046452100F04EF92A46034604
:100CC00030212046BDE8F041FFF71EBB3378702B82
:100CD00000F0C9806D2B00F0C6800027304699498E
:100CE00006F0C2FF002800F0D1802046FFF724FF65
:100CF0000346002F40F0C3802A4620463621BDE837
:100D0000F041FFF701BB0133E360204600F05EF9DC
:100D10003246034604212046FFF7F6FA0346BFE7B2
:100D20002A46204600233521BDE8F041FFF7ECBA02
:100D3000002E94D08449304606F096FF002800F03B
:100D4000AF803378662B00F0D9806E2B87D1737813
:100D5000772B01D0612B82D15F21204600F0FCF877
:100D60000646204600F040FBE3681A78452A07460D
:100D700000F0E180702A00F0D280692A7FF46FAF22
:100D80005B786C2B7FF46BAF2046FFF7D5FE0346F4
:100D90003A463B212046FFF7B7FA324603463A214E
:100DA0002046FFF7B1FA2A46034639212046BDE81E
:100DB000F041FFF7A9BA002E3FF451AFAB681B68B2
:100DC0005A78632A7CD03378662B00F08D802046D9
:100DD000FFF7B2FE07465D49304606F045FF0028A2
:100DE0007CD05B49304606F03FFF28B13046594978
:100DF00006F03AFF00287CD1204601F09DF8E36818
:100E00001A78492A06467DD033463A46382120468C
:100E1000FFF77AFA2A46034637212046BDE8F0411B
:100E2000FFF772BA0133E3604521204600F094F8E1
:100E3000034661E78368032B3FF611AF01A252F826
:100E400023F000BF210D0008550E00085F0C0008BC
:100E50005F0C00082046FFF76FFE03464CE70331A6
:100E6000C1600020B5E672789A427FF436AFE3683D
:100E70001A785F2A7FF432AF0133E3602DE71A4618
:100E800038212046FFF740FA034635E7204600F0B8
:100E90009DF803462DE7204600F0A6FA03462BE70F
:100EA0002046FFF749FE06462046FFF745FE074667
:100EB0002046FFF741FE034600287FF469AFCEE6E7
:100EC0001B78A3F16302012A03D9723B012B3FF681
:100ED0007AAF204600F088FA07467CE74521204695
:100EE00000F03AF806468FE7204600F071FE07460C
:100EF00071E72046FFF720FE064685E7204600F012
:100F000067FED0E70133E360204600F05FF8324629
:100F1000034604212046FFF7F7F9064674E75A789E
:100F2000692A7FF49CAE0233E3604521204600F03D
:100F300013F803462CE70133E360002328E700BFE2
:100F4000C42F0108A42A0108B42A0108A82A01080C
:100F5000AC2A0108B02A01082DE9F041C2681578D1
:100F600082B000238D420446019325D00F4601AD87
:100F70004FF001080AE02046FFF7C6F9286000F1AB
:100F80000C0578B1E3681A78BA420FD0266BC4F822
:100F900030802046FFF7D0FD00232E212663024635
:100FA0000028E8D1002002B0BDE8F08101980133AB
:100FB000E36002B0BDE8F0810132C2602E211A4622
:100FC00002B0BDE8F041FFF79FB900BF2DE9F04343
:100FD000C268D0F828901378452B83B004464CD0D3
:100FE0000021019101AD0126493B0F2B3CD8DFE8E0
:100FF00003F036363B313B3B3B3B3B3B3B3B3B3BD8
:101000003B080132D4F83080E26026632046FFF7C7
:1010100093FDE368C4F830801A78452A074603F147
:10102000010326D1E36000232F213A46204607B36F
:10103000FFF76AF9286000F10C05D0B1E268137877
:10104000452BD1D10198C4F828900132E26003B059
:10105000BDE8F0832046FFF701FD0746E3E72046A1
:1010600000F016F80746DEE7204600F0BDF9074617
:10107000D9E7002003B0BDE8F08301320023C2604D
:101080002F211A4603B0BDE8F043FFF73DB900BF7A
:10109000C2681378493B012B02D80132C26095E740
:1010A000002070472DE9F043C26813784E3B85B0AD
:1010B00004460C2B46D8DFE803F064454545450E51
:1010C000450745454545A60000F036FF054628463C
:1010D00005B0BDE8F0835378742B40F0C880D0E9A8
:1010E000053102328B42C26080F24C810169B948FD
:1010F0001A018D180133636100236B608B54032345
:10110000C5E90203204600F017FF2A4603460121E5
:101110002046FFF7F9F8E36AE2680333E3621378E5
:10112000492B0546D3D1002800F0AB80D4E9083222
:10113000934280F2A680E1695A1C41F823002262A2
:10114000204614E000F0F8FEE3681B78492B0546C2
:10115000BDD1002800F09580D4E90832934280F296
:101160009080E1695A1C41F8230020462262FFF773
:101170008FFF2A46034604212046FFF7C5F805469F
:10118000A5E70132C26003A9012200F0DFFD074696
:10119000002876D000212046FFF7FEF8E268DFF84D
:1011A0003C92157880460026002D00F08980442D61
:1011B00078D0A5F13003DBB21C2B67D829FA03F3F2
:1011C000DB0740F18280204600F0B6FE002E73D08F
:1011D0000121034632462046FFF796F80646E268AC
:1011E000532D11780DD045296DD0002E68D0D4E94B
:1011F00008318B4264DAE16941F8236001332362EC
:1012000011780D46D0E70132C260002100F0FEFFE8
:101210000546002835D0E3681A78452A31D15A1C92
:10122000E2605A78732A00F0AF80642A5ED02046CC
:10123000FFF738FF034650B1027802F0FD02452A5D
:1012400005D001902046FFF735FB019BC8B12A78F5
:10125000032A05D1EA681178292904BF0021916089
:101260002A4620460221FFF74FF805462FE70021C6
:10127000FFF744FAE3681B78492B05467FF427AF54
:101280005EE70025284605B0BDE8F083A5F16103BF
:10129000DBB2192B65D8204600F04EFE002E97D108
:1012A00006469CE7537803F0DF03542B20468BD18E
:1012B00000F09AF8002E8BD1E2680646117892E78A
:1012C00000253D6003E70D4673E7492D77D0542D87
:1012D00000F08680452D32D04D2DF1D1002EEFD07B
:1012E000531CE36051781A460D465DE70233E36014
:1012F0002046FFF74BF9B0F10008C2DB2046FFF7AC
:10130000D1FE064648B1037803F0FD03452B04D017
:101310002046FFF7CFFA0028B3D0D4E905239A423C
:101320004BDA20691101431801324FF0000C4627B7
:10133000C3F804C062614754C3E9026887E73E60AE
:10134000002E9ED0B8F1000F04D0039BC8F80830DF
:10135000CDF80C801378452B93D10132E260039DC8
:10136000B5E6552D3FF42FAF532DAED101212046C8
:10137000FFF7C4F9002E7FF42BAFE2681178064620
:101380000D4611E70025BDE60233E3602046FFF776
:1013900091FA00283FF475AFD4E905239A420CDA9C
:1013A00020690D4E110143180132626100225A601A
:1013B00042540E22C3E9026249E7002347E7002EA8
:1013C0003FF47EAF0132E2602046FFF7FFFD0421CB
:1013D000FFE600BFC82A0108B82A0108FF03081069
:1013E0002046FFF7EDF8F1E62DE9F041C2681378E9
:1013F000722B82B0044658D0562B56D04B2B54D06B
:10140000442B00F09E80A3F130014A2900F289802C
:10141000DFE811F0320132013201320132013201D2
:1014200032013201320132018700870087008700D4
:101430008700870087001D02870049018700870019
:1014400065016B0187008700870087008700050220
:1014500032017901870187009501A301C701ED01E0
:101460008700870087008700320187008700870098
:101470008700870087001001100110011001100182
:10148000100110011001100110018700100110015E
:10149000100110018700870087001001100157011B
:1014A00010011001100110011001002201A92046B5
:1014B00000F04CFC0646002833D0E3681B78462B2E
:1014C00020463AD0FFF790FF306050B30378019D7B
:1014D0001F3B012B2AD925B3D4E90832934220DAE5
:1014E000E1695A1C284641F82350226202B0BDE847
:1014F000F0810123056B0363FFF71EFB25630246A2
:10150000002342212046FEF7FFFE0546019040B130
:10151000E3681A782AB15A1CE2601B78452B00F068
:10152000B3800025284602B0BDE8F081836885605D
:10153000326801923360019DCDE700F0DDFC306040
:10154000C3E7537803F0DF014F29AED0773B012B7F
:10155000ABD9531CC3605378002BE2D0931CC360FB
:101560005378463B302BDCD801A151F823F000BF63
:10157000351A000823150008231500082315000854
:10158000231500082315000823150008231500085B
:10159000231500082315000823150008231500084B
:1015A0002315000823150008F3140008231500086C
:1015B000231500082315000823150008231500082B
:1015C000231500082315000823150008231500081B
:1015D000231500082315000823150008111A000818
:1015E00023150008ED190008C51900089D19000809
:1015F00075190008231500084D190008CB1A0008BA
:1016000023150008231500082315000823150008DA
:10161000A51A0008231500082F1900082315000833
:101620002315000807190008F31400082315000803
:10163000CD180008D4E90510613BC24D03EB8303CC
:10164000814205EB830380F2AB825868E66AD4F8E6
:1016500010C00F010CEB0705064430460132013182
:101660004FF0000E2726C5F804E061610CF8076012
:10167000AB60E260E06255E72046FFF713FD0546E8
:101680000190002D3FF44DAFD4E908329342BFF6EC
:1016900048AFE16941F82350019D5A1C2846226257
:1016A00002B0BDE8F0810132E2602046FFF79CFE07
:1016B0000023024625212046FEF726FE054601901E
:1016C000DFE70132E2602046FEF798FF0023024682
:1016D00028212046FEF718FE05460190D1E7204656
:1016E00000F00AFC05460190CBE70132E26020469B
:1016F000FFF77AFE0023024626212046FEF704FE6D
:1017000005460190BDE70132E2602046FFF76CFE1E
:101710000023024624212046FEF7F6FD05460190EF
:10172000AFE70132E2602046FFF75EFE002302468B
:1017300022212046FEF7E8FD05460190A1E701328F
:10174000E2602046FFF750FE002302462321204698
:10175000FEF7DAFD0546019093E75378A3F13002D6
:10176000092A05D95F2B03D0413B192B00F2DD81FB
:1017700000212046FEF7C2FFE36801901A78492A4B
:1017800005467FF4CFAE0133E3602046FFF71EFC31
:1017900003462A4604212046FEF7B6FD0546019081
:1017A0006FE72046FEF70CFFE66801903378492B7F
:1017B00005467FF466AF636B002B40F0C3810028C1
:1017C0003FF4AFAED4E908218A42BFF6AAAEE16980
:1017D00041F82200013222623278493A012AD8D8EF
:1017E0000136E6602046FFF7F1FB0346D1E7013200
:1017F000E2602046FEF702FFE36801901A78492A6A
:10180000054600F077812046FFF7EEFD019B02467A
:1018100021212046FEF778FD0546019031E701328F
:10182000E2602046FFF7E0FD054600283FF479AE70
:101830002046FFF7D9FD034600283FF472AE2A4642
:101840002B212046FEF760FD0546019019E7551C47
:10185000E56053785F2B00F04B81303B092B00F2A1
:101860005681284600E00846411CE1604378303B41
:10187000092BF8D9D4E905329342A1EB0507BFF64D
:1018800050AED4F810E04FEA031C0EEB0C06013307
:10189000002272606361002F3FF443AE72600EF865
:1018A0000C20C6E9025743785F2B7FF43AAE0D4611
:1018B0000135E5602046FFF797FD324603462A21B1
:1018C0002046FEF721FD05460190DAE693785F2B6E
:1018D00000F05C81FEF742FE0546002D3FF421AE8C
:1018E000E3681A785F2A7FF41CAE0133E360204678
:1018F000FFF77AFD2A4603462D212046FEF704FD18
:1019000005460190BDE6D0E90532934280F2488158
:101910000069E26A19014518013300266E60083239
:1019200063612726084B4654AB60E262FAE5FFF795
:101930005BFD002302464A212046FEF7E5FC0546F2
:1019400001909EE6A41E0108FC200108D0E90532A2
:10195000934280F225810069E26A1901451801333A
:1019600000266E60043263612726914B4654AB60BB
:10197000E262D7E5D0E90532934280F21181006935
:10198000E26A19014518013300266E60093263616D
:101990002726884B4654AB60E262C3E5D0E90532A6
:1019A000934280F2FD800069E26A19014518013313
:1019B00000266E600A32636127267F4B4654AB6077
:1019C000E262AFE5D0E90532934280F2E980006936
:1019D000E26A19014518013300266E60093263611D
:1019E0002726764B4654AB60E2629BE5D0E9053290
:1019F0009342BFF696AD0169714E1A018D180133FD
:101A0000436100230E206B608B54C5E9026089E5B9
:101A1000D0E905329342BFF684AD0169694E1A01DF
:101A20008D1801334361002304206B608B54C5E99A
:101A3000026077E5D0E905318B4280F2B580056917
:101A400018012918013300272C264F60019163618A
:101A50002E549378303BDBB2092B94BF01233B46D5
:101A60008B8103D804F10C00FEF734FD2046019D64
:101A7000FFF7BAFC019BA8609B68002B3FF451ADB7
:101A800004F10C00FEF726FDE268137813B1531C35
:101A9000E3601378019DA3F17303B3FA83F35B0949
:101AA000EB813FE5D0E90532934279DA0069E26AD9
:101AB00019014518013300266E6011326361272633
:101AC000414B4654AB60E2622CE5D0E905329342CB
:101AD00066DA0069E26A19014518013300266E6072
:101AE000083263612726394B4654AB60E26219E540
:101AF0000026DDE60133E3602046FFF767FA2A4659
:101B0000034604212046FEF7FFFB01907BE60123FC
:101B1000256B23632046FFF70FF825630646002850
:101B20003FF4FFACE1680B78BEE62046FFF7BAFA57
:101B30000546019000283FF4F4AC0378182B7FF49D
:101B4000A3ADEFE4731CE3602046D4F81480276A49
:101B5000E56AFFF73BFAE2681278492A06D0E562A7
:101B6000E660C4F814802762019D8AE5019A002A84
:101B70003FF4D7ACD4E908139942BFF6D2ACE6697A
:101B80004D1C46F821200346256203E6033201235B
:101B9000066BC2600363FEF7CFFF266305469CE633
:101BA000002301939B68FFDE00231B70FFDE00BF54
:101BB000E8200108AC200108D4200108C020010859
:101BC000D42A0108CC2A0108242101081021010887
:101BD000F8B5C3681E78864656BB4FF0000C394CEA
:101BE00043200022831A03EBD37302EB6303190132
:101BF000671861580D78B54206D094BF5A1C184634
:101C00008242EFD10020F8BD49786145F5D1DEE987
:101C100005329342F6DADEF810101A018818013303
:101C2000002531244560CEF814308C548760F8BD0F
:101C30005A1CC26093F801C01E78BCF1000F21D07D
:101C40009A1CC260762E044693F801C01DD1ACF1F7
:101C50003005EBB2092BC2D8FEF7D0FCD4E9053130
:101C60008B420246CEDA266919017018013300272B
:101C700047606361002AC5D0322347607354C0E9CE
:101C80000252F8BD762EAAD0A7E7632EA7D1BCF1E9
:101C9000760FA4D1D0E90C35B3FA83F35B09436323
:101CA000FFF7A2FB636B024633B1002334212046C9
:101CB000FEF72AFB6563F8BD33212046FEF724FBBF
:101CC000F8E700BF3821010830B5C26883B00023AF
:101CD0000193137843B3452B26D02E2B24D00446F2
:101CE00001AD15E04F2B16D0FFF77EFB0023024617
:101CF0002E21C8B12046FEF707FB2860A0B1E2689C
:101D0000137800F10C054BB1452B07D02E2B05D0D5
:101D1000522B2046E6D15378452BE5D1019818B1D6
:101D2000C36823B103B030BD002003B030BD82686A
:101D300011782729F6D19268117C0929F2D15168CE
:101D4000E26A521AE2628360ECE700BF2DE9F04FCD
:101D50000C46C168171E0B7883B0054615BF4FF0BF
:101D60001E0A4FF01B0A4FF01D094FF01A0914BF4D
:101D70004FF01C084FF0190826464FF0010B722B4C
:101D800014D0562B12D04B2B10D0442B06D00FB9A9
:101D9000462B54D0304603B0BDE8F08F4A7802F0AD
:101DA000DF004F2802D0773A012AF0D84A1C722B64
:101DB000EA6013D0562B27D04B2B1FD04B78002B2B
:101DC00038D08B1CEB604B78782B4BD06F2B21D10C
:101DD000EB6A0933EB624E21002304E0EB6A09331E
:101DE000EB624146002300222846FEF78DFA306060
:101DF00000B3E96800F108060B78C0E7EB6A063328
:101E0000EB6251460023EEE7EB6A0933EB62494689
:101E10000023E8E74F2B37D1D5E90B320933EB62CA
:101E2000C5F830B028460192FEF786FE019A2A6373
:101E3000034608BB0026304603B0BDE8F08FA6423B
:101E4000A8D01D201E211C2204E0192B12D008341A
:101E5000A6429FD0246823781A2B09D01B2BF4D1DB
:101E60002170F4E7EB6A1133EB624C210023BAE7EF
:101E70002070ECE72270EAE7EA6811784529D9D1A9
:101E80000132EA604E21AEE7772BD3D1EB6A0633FD
:101E9000EB622846FFF718FF03460028CAD0EA681D
:101EA00011784529C6D10132EA604F219BE700BF76
:101EB00070B5C3681A784A2A044619D081B1204601
:101EC000FFF792FA054688B12046FFF7FDFE68B19C
:101ED00003462A4620462921BDE87040FEF714BA81
:101EE00020460D46FFF7F0FE0028F1D1002070BD1E
:101EF0000133C360E3E700BFC3681A78462A18D1EC
:101F000010B55A1CC2605A78592A04BF0233C36004
:101F100001210446FFF7CCFF01462046FEF73CFABC
:101F2000E3681A78452A02D10133E36010BD00202E
:101F300010BD0020704700BF2DE9F041C1680B784B
:101F4000A3F13002092A044651D9A3F16102192AEA
:101F500015D86F2B04D14B786E2B04BF0231C160B2
:101F60002046FFF735FE054610B10378312B4BD0E4
:101F7000E3681B78422B41D02846BDE8F081A3F1ED
:101F80004302012A68D94C2B55D0552B5ED14B7892
:101F90006C2B00F0D080742B58D14B1CC3604B7855
:101FA000742B57D10231C160FEF7F0FA0028C0F25D
:101FB0000D81D4E90532934280F208812669226AB4
:101FC000D4F824C019017518013300276F606245E9
:101FD00063614FF047037354E368A86080F2FA80AE
:101FE000E16941F82250013222621B78C2E7FEF714
:101FF00005FBE3681B78422B0546BDD129462046E8
:10200000BDE8F041FEF75EBB8268E36A966810683F
:102010007C4907333344E36205F026FE0028A7D14C
:102020002046FEF7EBFA2A46034636212046FEF705
:102030006BF905469CE70131C160FEF7DFFA054602
:1020400020B12046FEF736FC002891D10025284615
:10205000BDE8F08100258DE7826A1AB1107840B39F
:10206000182826D0442B2DD04B78492B00F09B808C
:10207000313BDBB2042BE9D863480344023193F8C7
:102080009887E160D4E90530834280F2AC8026690C
:1020900018013518013300276F606361002A00F0D2
:1020A000A88007236F60335485F80880EA600B78B6
:1020B00060E7E36AD0680344E3620B78432BD3D034
:1020C000442BC7D14B78303B052BBFD801A050F82B
:1020D00023F000BFED200008312100082B2100086B
:1020E0004D200008252100081F2100084FF0010C99
:1020F000D4E905308D1C8342E5606EDA266918014B
:102100003518013300276F606361002A68D0082307
:102110006F60335485F808C0EA608B782AE74FF087
:10212000050CE5E74FF0040CE2E74FF0030CDFE7A6
:102130004FF0020CDCE74B1CC3604B786C2B89D151
:102140000231C160FFF7C0FD064600283ED0E268BC
:102150001378452B7FF47EAF0132E2602046FEF714
:1021600015FAB0F1000C31DBD4E905329342E06896
:1021700045DA2769226AD4F8248019017D180133D1
:102180004FF0000EC5F804E0424563614FF045038F
:102190007B54C5E9026C2FDAE36943F8225001321F
:1021A00022620378E6E64B1CE3608B78313BDBB2BE
:1021B000042B1BD8144A03311344E160204693F8E2
:1021C0009887FFF711F9A26AE1685BE7E3680025E9
:1021D0001B78CFE61B783D46CCE68B780025C9E618
:1021E0008B781546C6E60B780025C3E64B780025AC
:1021F000C0E60B781546BDE603787546BAE6037867
:102200000025B7E6E42A0108E01D01082DE9F047A2
:10221000C3681A78472A044601D0542A4AD1E16A91
:1022200001F11402E2621A78542A5ED0472A40F083
:10223000C2805A1CE2605A78002A00F0BC809A1CC6
:10224000E2605A78413A312A00F2B580DFE812F0B4
:10225000EB00B300B300B300B300B300B300B300AE
:10226000B300B300B300B300B300B300B300B300D6
:10227000B300DC00B3005001B300F700B300B300BB
:10228000B300B300B300B300B300B300B300B300B6
:10229000B300B300B300B300B300B300B300B300A6
:1022A000B300B300B300B300B300B300B300B30096
:1022B000B30002010E46FEF7F5FE054600287AD06F
:1022C000002E53D0A368DB0750D42B784C2BA3F1FE
:1022D0001C01A3F14E0274D071D8042971D9022BCC
:1022E00000F01A812846BDE8F0875A1CE2605A784F
:1022F000002A60D09A1CE2605B78433B332B5AD8AB
:10230000DFE813F03401590059005F01590054010E
:10231000D201C7015900590059005900590059000C
:1023200059005900BC01AF015900A20197015900A1
:1023300059005900590059005900590059005900D5
:10234000590059007D0159005900590059006A018E
:1023500059005900590059005900590059005900B5
:10236000590059005900590059002101E3681B78B0
:10237000002BB7D0452BB5D029460B78202B38D869
:102380001C2B3DD2022B00F0C681042B1BD18B6885
:1023900063B11978082901F1FF3200F2B8810729E9
:1023A00011D2012A02D8DB68002BF2D101210BE007
:1023B000E3680B44E36000252846BDE8F087012A66
:1023C0008DD8AD6881E700212046FFF771FD002818
:1023D000F1D036B92B78022B03D10378292B08BF13
:1023E000866003462A4620460321BDE8F047FDF7F4
:1023F0008BBF4C2BA3F14E0202D0E4D3012AE2D8CA
:1024000089680029B9D1DFE72046FEF74BFE054673
:102410002046FEF7A3F82A46034616212046BDE8CB
:10242000F047FDF771BF00212046FFF7EFFE0023C4
:10243000024617212046BDE8F047FDF765BF20465C
:10244000FEF730FE0023024613212046BDE8F04788
:10245000FDF75ABF04F10C00FEF73CF80128AADD95
:10246000E3681A78002AA6D05F1CE7601B785F2B10
:10247000A1D10022461E90464FF040093B78002B28
:1024800099D0242B40F01F817B78532B00F04A8198
:102490005F2B00F04581242B8DD11946D4E905032B
:1024A000E768984207F1020780F23E81D4F810C035
:1024B00005010CEB05030130C3F80480023E6061A6
:1024C0000CF805909960E760002A00F01E813F211A
:1024D0002046FDF719FF024600283FF46CAF002E9E
:1024E000CCDC204600233E21BDE8F047FDF70CBFC1
:1024F0009A78002120462AB1DA1CE2609B786E2B84
:1025000000F01581FFF782FE002302464821204695
:10251000BDE8F047FDF7F8BEEA6813784C2BA3F14D
:102520001C00A3F14E0104D000F2C98004283FF63C
:10253000D9AE9268EA6013784C2BA3F11C00A3F18A
:102540004E01F1D1F5E776212046FEF789F9002802
:102550003FF431AF00212046FFF758FE002302462A
:1025600010212046BDE8F047FDF7CEBE2046FEF71D
:102570003BFF054604F10C00FDF7ACFF0028FFF619
:102580001AAFE3681A785F2A7FF415AF0133E3606E
:102590002046FEF729FFE36A591DE16202462B46F9
:1025A00020460B21BDE8F047FDF7AEBE2046FEF702
:1025B00079FD0023024614212046BDE8F047FDF7CF
:1025C000A3BE2046FEF710FF002302460E21204640
:1025D000BDE8F047FDF798BE68212046FEF740F9B8
:1025E00000283FF4E8AE00212046FFF70FFE00234D
:1025F00002460F212046BDE8F047FDF785BE0021C9
:102600002046FEF72DF900283FF4D5AE00212046E4
:10261000FEF726F900283FF4CEAE00212046FFF752
:10262000F5FD0023024611212046BDE8F047FDF7E5
:102630006BBE2046FEF736FD0023024615212046DC
:10264000BDE8F047FDF760BE0F31E1622046FEF7BE
:10265000CBFE0023024609212046BDE8F047FDF7E6
:1026600053BE0A31E1622046FEF7BEFE0023024659
:102670000A212046BDE8F047FDF746BE2046FEF79A
:10268000B3FE002302460D212046BDE8F047FDF7CA
:102690003BBE2046FEF7A8FE00230246122120463C
:1026A000BDE8F047FDF730BE2046FEF79DFE002353
:1026B00002460C212046BDE8F047FDF725BE012962
:1026C0003FF610AE35E73D46002104E015F8013F26
:1026D00023B1242B02D00131B142F7DBD4E9050349
:1026E0009842BFF665AE236903EB00130130C3F8CF
:1026F00004806061E0689F604718C3F8048083F835
:102700000080D960761AE760DEE61A46E7E63439DB
:1027100018BF012158E6C96800297FF42EAE53E6A0
:102720002E21BBE62F21B9E6E7600025DAE5FFF7A9
:102730006DFD0023024649212046BDE8F047FDF724
:10274000E3BD00BF002A75D05368012B72DCD0F8BE
:102750001CC1BCF5806F6DDC2DE9F04F15465A1C8D
:102760006A6097B00446D0F81871D0F82C21029511
:102770000E460CF1010002A9C4F81C010392C4F832
:102780002C11002F40F0D38028784F2801F2EF82DF
:10279000DFE810F0A409040904098B083D09610869
:1027A00036082808520A2C0AF809D209C70A7B0AF7
:1027B000A10AD5051807F206CC0693066D06470652
:1027C0002106FB05A3078C078C078C0767076707A3
:1027D000670767076707670767073E073E076707DB
:1027E0006707DC07CE070A0869054A05F9044A05A8
:1027F000B504B50470043B041504ED0AEF03E203CD
:102800008D0382037C036D036703670320032003AA
:10281000FA02E802C702980272024C021102EB01AE
:10282000ED0AC601A0014F01000175016707D5003F
:10283000670767070123C0F818317047AA689368D3
:102840001B685978632902F01E8205F10C0331469A
:10285000204603F05FFE0746002842F0B583AB68D0
:102860001A78312A02F08B859B68D849186805F0E0
:10287000FBF9EB689A6818B91378032B02F0DF852F
:102880003146204603F0F8FDAF68D149BB68D3F864
:102890000080404605F0E8F98146002842F0A08417
:1028A000D4F80031FF2B0ED184F8FF0019462046E2
:1028B000D4E942329847D4F82831C4F800915A1C20
:1028C000C4F828214B46591C5B22C4F80011E2547D
:1028D00084F80421EB683146DA682046FFF732FFBE
:1028E000D4F80031FF2B0FD10026194684F8FF6081
:1028F000D4E9423220469847D4F82831C4F8006120
:102900005A1CC4F8282133465D22591CC4F8001112
:10291000E25484F80421AB681A78312A02F0C384A7
:102920006B68D4F81C11039A013B01F1FF3CC4F819
:102930002C216B60C4F81CC117B0BDE8F08FDFF824
:102940009C82AA6831462046FFF7FCFE08F1070A80
:10295000D4F8001120274FF000090BE00B4601319D
:10296000C245C4F80011E75484F8047101F08D8366
:1029700018F8017FFF29F1D1D4E9423284F8FF90A1
:1029800020469847D4F828310133C4F82831012172
:102990000023E5E7A9682046FDF7D8FF4FF0000ABD
:1029A000002802F0138503782F2B41F07685836889
:1029B000002B01F07285C0680AF1010A0028F2D1EB
:1029C000AB6800930AF1FF339846B146019503E0E6
:1029D0000137BA4541F34185C4F82471009A49464C
:1029E0002046FFF7AFFE4745F2DA7A4ED4F80011E1
:1029F00006F1010B2C250AE00B460131B345C4F862
:102A00000011E55484F80451E2D016F8015FFF2963
:102A1000F2D14FF0000384F8FF302046D4E942326F
:102A20009847D4F828310133C4F828310121002314
:102A3000E4E7DFF8AC81D4F8001108F1190A6E2739
:102A40004FF000090BE00B460131C245C4F80011FC
:102A5000E75484F8047101F0A48118F8017FFF297C
:102A6000F1D1D4E9423284F8FF9020469847D4F857
:102A700028310133C4F8283101210023E5E7DFF8CC
:102A80006481AA6831462046FFF75CFE08F1040A1B
:102A9000D4F800115B274FF000090BE00B46013121
:102AA000C245C4F80011E75484F8047101F013839F
:102AB00018F8017FFF29F1D1D4E9423284F8FF9060
:102AC00020469847D4F828310133C4F82831012131
:102AD0000023E5E7DFF81081D4F8001108F1150AAA
:102AE00074274FF000090BE00B460131C245C4F8D2
:102AF0000011E75484F8047101F06B8218F8017F2B
:102B0000FF29F1D1D4E9423284F8FF90204698475A
:102B1000D4F828310133C4F8283101210023E5E736
:102B20002D4FD4F8001107F10D097B264FF0000856
:102B30000BE00B460131B945C4F80011E65484F8A6
:102B4000046101F0548217F8016FFF29F1D1D4E933
:102B5000423284F8FF8020469847D4F82831013368
:102B6000C4F8283101210023E5E7DFF88080D4F89C
:102B7000001108F1070A7B274FF000090BE00B4614
:102B80000131C245C4F80011E75484F8047101F022
:102B9000918118F8017FFF29F1D1D4E9423284F8FC
:102BA000FF9020469847D4F828310133C4F82831E3
:102BB00001210023E5E7DFF83880D4F8001108F19F
:102BC0001B0A67274FF0000920E000BFA82A010870
:102BD000AC2C0108802C0108582D0108682D010833
:102BE0004C2C0108E82A0108502C0108482D010846
:102BF000282D01080B460131C245C4F80011E754E5
:102C000084F8047101F0D78118F8017FFF29F1D110
:102C1000D4E9423284F8FF9020469847D4F828310E
:102C20000133C4F8283101210023E5E7DFF8FC83F4
:102C3000D4F8001108F11C0A67274FF000090BE0D7
:102C40000B460131C245C4F80011E75484F8047101
:102C500001F0FC8018F8017FFF29F1D1D4E942325C
:102C600084F8FF9020469847D4F828310133C4F8FF
:102C7000283101210023E5E7DFF8B483D4F80011FF
:102C800008F1090A64274FF000090BE00B460131F7
:102C9000C245C4F80011E75484F8047101F0E480DF
:102CA00018F8017FFF29F1D1D4E9423284F8FF906E
:102CB00020469847D4F828310133C4F8283101213F
:102CC0000023E5E706A8AA68D6490BF01BFA06A878
:102CD00005F036F9002801F0728006AED4F8001134
:102CE00006EB00094FF0000809E00B460131B14541
:102CF000C4F80011E75484F8047101F06080FF29E2
:102D000016F8017BF1D1D4E9423284F8FF802046E5
:102D10009847D4F828310133C4F828310121002321
:102D2000E5E7D4F800112E7AFF2914D14FF00008FE
:102D3000D4E94232204684F8FF809847D4F828111D
:102D40006B68D4F81C01039A4F1CC4F828714146E3
:102D5000013B00F1FF3C481CC4F80001665484F8B4
:102D60000461E4E5AA6831462046FFF7EBFC3146F2
:102D7000EA682046FFF7E6FC6B68D4F81C11039A5A
:102D8000013B01F1FF3CD2E5DFF8A882D4F8001145
:102D900008F10D0A6A274FF000090BE00B460131DC
:102DA000C245C4F80011E75484F8047101F01080A2
:102DB00018F8017FFF29F1D1D4E9423284F8FF905D
:102DC00020469847D4F828310133C4F8283101212E
:102DD0000023E5E7AB681A78272A01F01C85002755
:102DE000D4F80031FF2B10D14FF00008194684F8B9
:102DF000FF80D4E9423220469847D4F82831C4F8FD
:102E000000815A1CC4F828214346591C2822C4F8C2
:102E10000011E25484F80421AA6831462046FFF7E5
:102E200091FCD4F80031FF2B01F03D86591C29227A
:102E3000C4F80011E25484F804212B783D2B02F0F1
:102E40001080082F01F014853146EA682046FFF70C
:102E500079FC6B68D4F81C11039A013B01F1FF3C2B
:102E600065E50123C4F818316B68013B5FE5EB6849
:102E700019783A2904D1DB681B783B2B02F05B817F
:102E80000123C4F818316B68013B50E50123C4F8F5
:102E900018316B68013B4AE5EB681B78382B3FF42F
:102EA000CDAC0123C4F818316B68013B3FE5D5E98F
:102EB000028798F80030312B01F07D85332B42F0EA
:102EC000ED83D4F80031FF2B10D14FF000091946E3
:102ED00084F8FF90D4E9423220469847D4F828314C
:102EE000C4F800915A1CC4F828214B46591C2822CA
:102EF000C4F80011E25484F80421D8F808203146BF
:102F00002046FFF71FFCD4F80031FF2B10D14FF003
:102F10000008194684F8FF80D4E9423220469847D9
:102F2000D4F82831C4F800815A1CC4F8282143463B
:102F30002922591CC4F80011E25484F804213A46AD
:102F40003146204603F098FA6B68D4F81C11039AB6
:102F5000013B01F1FF3CEAE43146AA68204603F058
:102F60004FFA6B68D4F81C11039A013B01F1FF3C46
:102F7000DDE4DFF8C480D4F8001108F1080A6F27F7
:102F80004FF000090BE00B460131C245C4F80011B7
:102F9000E75484F8047100F0378718F8017FFF299F
:102FA000F1D1D4E9423284F8FF9020469847D4F812
:102FB00028310133C4F8283101210023E5E7DFF887
:102FC0007880D4F8001108F1080A6F274FF0000943
:102FD0000BE00B460131C245C4F80011E75484F8F8
:102FE000047100F0038718F8017FFF29F1D1D4E9BB
:102FF000423284F8FF9020469847D4F828310133B4
:10300000C4F8283101210023E5E7D5F80890064FE0
:10301000D9F80880D4F8001107F1070B6F264FF09C
:10302000000A17E0042B0108842C0108082D010870
:10303000E82C0108D82C0108902C01080B4601311E
:10304000BB45C4F80011E65484F8046101F06980BE
:1030500017F8016FFF29F1D1D4E9423284F8FFA0BB
:1030600020469847D4F828310133C4F8283101218B
:103070000023E5E7D5E902281AB131462046FFF7DB
:1030800061FBD4F80031FF2B0DD10027194684F8DD
:10309000FF70D4E9423220469847D4F828315A1CB0
:1030A000C4F828213B46581C7B27C4F80001314650
:1030B000E7544246204684F80471FFF743FBD4F8F6
:1030C0000011FF290CD10026D4E9423284F8FF60B8
:1030D00020469847D4F8283101333146C4F82831C6
:1030E0004A1C7D23C4F80021635484F804316B68C2
:1030F000D4F81C11039A013B01F1FF3C17E4AA68C4
:103100001AB131462046FFF71DFBEB68002B01F09A
:103110008E85D4F80031FD2B0ED90027E7541946CF
:103120002046D4E942329847D4F82831C4F80071D7
:103130005A1CC4F828213B46DFF89C934FF02C081A
:1031400009F1010B4FF0000A19460CE00B46013162
:10315000CB45C4F8001104F8038084F8048101F021
:10316000868119F8018FFF29F0D1D4E9423284F821
:10317000FFA020469847D4F828310133C4F82831FD
:1031800001210023E4E7B5F90E30002B41F02A8538
:10319000AA68CF4B9168994201F086823146204659
:1031A000FFF7D0FAD4F80031FF2B0FD100261946D3
:1031B00084F8FF60D4E9423220469847D4F8283199
:1031C000C4F800615A1CC4F8282133462022591C37
:1031D000C4F80011E25484F80421B5F90C30002B36
:1031E00041F00E82BB4F984607F105095F260BE0C0
:1031F0000B460131B945C4F80011E65484F8046166
:1032000001F0568217F8016FFF29F1D1D4E942325B
:1032100084F8FF8020469847D4F828310133C4F859
:10322000283101210023E5E7D4E9443106AA002032
:10323000C4F81421CDE906150890EA6809933146CF
:103240002046FFF77FFA089B002B01F066846B682D
:10325000D4F81C210699C4F8141102F1FF3C013B7B
:10326000039AFFF764BBD4E9443A0DF11809002230
:1032700057460795CDF800A0CDF818A0C4F81491D2
:10328000CDE90823002F02F049817B681B78193BA8
:10329000022B02F24381B6464FF001084E4604E08D
:1032A0007B681B78193B022B1DD8BB684FEA081CB2
:1032B00016AA02EB0C0B9BB9B8F1030F01F27F8643
:1032C00097E80F00ABF1400A8AE80F004BF8406C1A
:1032D000012309EB0C06C4F8146108F10108BB6076
:1032E0003F68002FDCD1EA68714620467646FFF73A
:1032F00029FA089B009AC4F81421BBB9B8F1010F50
:103300000CD009EB08180AAF58F80C2C3146A8F17C
:103310001008204602F060FA4745F5D13146D4F84E
:10332000143105F10802204602F08CFF6B68D4F8D6
:103330001C11039A013B01F1FF3CFFF7F8BADFF8DB
:103340009C81D4F8001108F1140A6E274FF000098F
:103350000BE00B460131C245C4F80011E75484F874
:10336000047101F0458018F8017FFF29F1D1D4E9FB
:10337000423284F8FF9020469847D4F82831013330
:10338000C4F8283101210023E5E7DFF85481D4F89F
:10339000001108F1100A68274FF000090BE00B46F6
:1033A0000131C245C4F80011E75484F8047100F0FB
:1033B000E78718F8017FFF29F1D1D4E9423284F878
:1033C000FF9020469847D4F828310133C4F82831BB
:1033D00001210023E5E7DFF80C81D4F8001108F1A2
:1033E000140A72274FF000090BE00B460131C24569
:1033F000C4F80011E75484F8047100F0CF8718F87E
:10340000017FFF29F1D1D4E9423284F8FF902046B0
:103410009847D4F828310133C4F82831012100231A
:10342000E5E7DFF8C480D4F8001108F1180A542742
:103430004FF000090BE00B460131C245C4F8001102
:10344000E75484F8047100F07F8718F8017FFF29A2
:10345000F1D1D4E9423284F8FF9020469847D4F85D
:1034600028310133C4F8283101210023E5E7DFF8D2
:103470007C80D4F8001108F1150A54274FF0000998
:103480000BE00B460131C245C4F80011E75484F843
:10349000047100F0678718F8017FFF29F1D1D4E9A2
:1034A000423284F8FF9020469847D4F828310133FF
:1034B000C4F8283101210023E5E7DFF83480D4F88F
:1034C000001108F1120A67274FF000091EE000BF43
:1034D000441F0108702C0108802C0108942B01085E
:1034E000382C0108202C0108042C0108EC2B0108C1
:1034F000D82B01080B460131C245C4F80011E7542E
:1035000084F8047100F0048718F8017FFF29F1D1D5
:10351000D4E9423284F8FF9020469847D4F8283105
:103520000133C4F8283101210023E5E7DFF8708674
:10353000D4F8001108F10E0A6A274FF000090BE0D9
:103540000B460131C245C4F80011E75484F80471F8
:1035500000F0EC8618F8017FFF29F1D1D4E942325E
:1035600084F8FF9020469847D4F828310133C4F8F6
:10357000283101210023E5E7DFF82886D4F800117F
:1035800008F1190A63274FF000090BE00B460131DF
:10359000C245C4F80011E75484F8047100F09C8619
:1035A00018F8017FFF29F1D1D4E9423284F8FF9065
:1035B00020469847D4F828310133C4F82831012136
:1035C0000023E5E7DFF8E085D4F8001108F1100AE0
:1035D00076274FF000090BE00B460131C245C4F8D5
:1035E0000011E75484F8047100F0848618F8017F14
:1035F000FF29F1D1D4E9423284F8FF902046984760
:10360000D4F828310133C4F8283101210023E5E73B
:10361000D4F82001D5F8089028B999F80030052B86
:1036200001F09484074699F80030232B00F0488776
:103630002A789A4200F04487242B01F0B985D4F807
:1036400014A1A94606ABC4F81431D4F81031CDF852
:1036500018A00022CDE90823CDF81C90D9F8082045
:103660000DE00022D4E94431CDE9061506A9C4F8DD
:1036700014110021CDE90813A946002AEED03146E5
:103680002046FFF75FF8089B002B00F0CD86069BD5
:10369000C4F814310FB1C4F810816B68D4F81C1150
:1036A000039A013B01F1FF3CFFF741B9D4F814A1A3
:1036B0005346BAF1000FC4D0996851B95A681278CC
:1036C000A2F1190CBCF1020F01F2C882904201F084
:1036D000B7821B68002BEFD1B3E7D5E9026100295F
:1036E0003FF425A906EB010909F1FF39D4F80011CF
:1036F000013E4FF0000809E00B460131B145C4F826
:103700000011E75484F8047100F09586FF2916F83B
:10371000017FF1D1D4E9423284F8FF8020469847F6
:10372000D4F828310133C4F8283101210023E5E71A
:103730003146AA682046FFF705F86B68D4F81C11DB
:10374000039A013B01F1FF3CFFF7F1B816F00406C4
:10375000A96840F0B986D1E9007000283FF4E7A8D5
:103760003844D4F8001100F1FF39013FB04609E0B8
:103770000B460131B945C4F80011E65484F80461E0
:1037800001F04080FF2917F8016FF1D1D4E94232EE
:1037900084F8FF8020469847D4F828310133C4F8D4
:1037A000283101210023E5E7B20626F06007D4F8AE
:1037B000143101F19B81AA681AB116F0400601F09C
:1037C00063833946D4F8143105F10C02204602F027
:1037D0000BFB6B68D4F81C11039A013B01F1FF3C11
:1037E000FFF7A5B83146EA682046FEF7ABFF6B68E5
:1037F000D4F81C11039A013B01F1FF3CFFF797B885
:10380000D5F80880D4F80011B8F1000F00F0238734
:10381000E14E7B2706F1050A4FF000090BE00B464D
:103820000131B245C4F80011E75484F8047100F086
:103830007E8716F8017FFF29F1D1D4E9423284F85E
:10384000FF9020469847D4F828310133C4F8283136
:1038500001210023E5E7D4F82031002B00F05E863B
:10386000CE4FD4F8001107F1040961264FF000088B
:103870000BE00B460131B945C4F80011E65484F859
:10388000046100F01E8717F8016FFF29F1D1D4E918
:10389000423284F8FF8020469847D4F8283101331B
:1038A000C4F8283101210023E5E7D5F80880D4F8D1
:1038B000143100930022C4F81421B8F1000F01F074
:1038C00035840DF11809D4F810E1174610464B461F
:1038D00098F800101A604C29A1F11C0AA1F14E02BF
:1038E000C3E90180C3F80CE007F101079C4600F032
:1038F000488200F24382BAF1040F40F24282022968
:10390000C4F8143101F0F08298F80030042B04D18F
:10391000CDE904E804ABC4F81031EA68314620462A
:10392000FEF710FF98F80030042B02D1049BC4F876
:10393000103109EB07174FF02008AA4657F8085C2A
:10394000E5B9D4F80011FF290BD1D4E9423284F84B
:10395000FF5020469847D4F8283101332946C4F84F
:1039600028314B1CC4F8003157F80C2C04F80180A6
:103970002046314684F8048101F02EFF103FB945FE
:10398000DCD1009BC4F8143155466B68D4F81C1187
:10399000039A013B01F1FF3CFEF7C9BFAA6831461B
:1039A0002046FEF7CFFE16F0040A01F0F880D4F8A6
:1039B0000031FF2B0FD10027194684F8FF70D4E99E
:1039C000423220469847D4F82831C4F800715A1C76
:1039D000C4F828213B462E22591CC4F80011E25499
:1039E00084F80421D5F80C8098F80030462B01F0BB
:1039F0009C81424631462046FEF7A4FE6B68D4F80F
:103A00001C11039A013B01F1FF3CFEF790BF00231C
:103A10007107D4F81481D4F84871C4F81431C4F88B
:103A20004851D5F8089007D599F8003023B9D9F84E
:103A30000C20062A01F0C0834A4631462046FEF794
:103A400081FE94F804313C2B01F08B80D4F80011F6
:103A5000FF290DD14FF00009D4E9423284F8FF90DC
:103A600020469847D4F8283101334946C4F8283114
:103A70003C234A1CC4F80021635484F804313146C5
:103A8000EA682046FEF75EFE94F804313E2B01F012
:103A90004B80D4F80011FF290CD10026D4E9423222
:103AA00084F8FF6020469847D4F828310133314626
:103AB000C4F828313E234A1CC4F80021635484F81A
:103AC00004316B68D4F81C21C4F8148102F1FF3C66
:103AD000C4F84871013B039AFEF729BF16F00406AB
:103AE000AF6840F03C85E96800293EF420AF07EB61
:103AF000010808F1FF38D4F80011013FB14609E090
:103B00000B460131B845C4F80011E65484F804614D
:103B100000F06F86FF2917F8016FF1D1D4E9423226
:103B200084F8FF9020469847D4F828310133C4F830
:103B3000283101210023E5E7DFF87080D4F8001177
:103B400008F1170A63274FF000090BE00B4601311B
:103B5000C245C4F80011E75484F8047100F084836E
:103B600018F8017FFF29F1D1D4E9423284F8FF909F
:103B700020469847D4F828310133C4F82831012170
:103B80000023E5E7DFF82880D4F8001108F1070AE0
:103B900056274FF0000919E0F82C0108182B0108EE
:103BA000C82B0108AC2B0108982B0108382B010801
:103BB0002C2B01080B460131C245C4F80011E75413
:103BC00084F8047100F0428318F8017FFF29F1D1D5
:103BD000D4E9423284F8FF9020469847D4F828313F
:103BE0000133C4F8283101210023E5E7DFF83086EE
:103BF000D4F8001108F10A0A76274FF000090BE00B
:103C00000B460131C245C4F80011E75484F8047131
:103C100000F00E8318F8017FFF29F1D1D4E9423278
:103C200084F8FF9020469847D4F828310133C4F82F
:103C3000283101210023E5E7D4F80031FF2B0FD113
:103C40000027194684F8FF70D4E94232204698478D
:103C5000D4F82831C4F800715A1CC4F828213B4616
:103C6000591C7E22C4F80011E25484F80421314624
:103C7000EA682046FEF766FD6B68D4F81C11039ACB
:103C8000013B01F1FF3CFEF752BEDFF89885D4F806
:103C9000001108F1110A74274FF000090BE00B46E0
:103CA0000131C245C4F80011E75484F8047100F0F2
:103CB000968218F8017FFF29F1D1D4E9423284F8C5
:103CC000FF9020469847D4F828310133C4F82831B2
:103CD00001210023E5E7DFF85085D4F8001108F151
:103CE0000F0A74274FF000090BE00B460131C24563
:103CF000C4F80011E75484F8047100F0628218F8E7
:103D0000017FFF29F1D1D4E9423284F8FF902046A7
:103D10009847D4F828310133C4F828310121002311
:103D2000E5E7DFF80885D4F8001108F10C0A7427DC
:103D30004FF000090BE00B460131C245C4F80011F9
:103D4000E75484F8047100F0588218F8017FFF29C5
:103D5000F1D1D4E9423284F8FF9020469847D4F854
:103D600028310133C4F8283101210023E5E701237C
:103D7000C4F818316B68013BFEF7D9BD012A3FF644
:103D8000BEADD8F808806246B8F1000F01F0CC81D2
:103D9000042F03F110037FF49BAD0123C4E945C355
:103DA000F3E53146AA682046FEF7CCFC6B68D4F8F0
:103DB0001C11039A013B01F1FF3CFEF7B8BD6B6893
:103DC000D4F81C11039A013B01F1FF3CFEF7AFBD93
:103DD0003146AA682046FEF7B5FC6B68D4F81C1182
:103DE000039A013B01F1FF3CFEF7A1BD3146EA68B1
:103DF0002046FEF7A7FC6B68D4F81C11039A013B20
:103E000001F1FF3CFEF793BDD4F8483133B1D4F84B
:103E10001021079306AB0692C4F81031AA681378F4
:103E2000042B00F0758531462046FEF78BFCD4F854
:103E3000483113B1069BC4F810316B68D4F81C11DB
:103E4000039A013B01F1FF3CFEF771BD3146AA68C0
:103E50002046FEF777FC6B68D4F81C11039A013BEF
:103E600001F1FF3CFEF763BD3146AA682046FEF72C
:103E700069FCD4F80011FF290CD10026D4E94232A4
:103E800084F8FF6020469847D4F828310133314642
:103E9000C4F828314A1C2923C4F80021635484F84B
:103EA00004316B68D4F81C11039A013B01F1FF3C0B
:103EB000FEF73DBDD4F82031AA68D74F0133314613
:103EC000C4F820312046FEF73DFCD4F82031D4F868
:103ED0000011013BC4F8203107F1010929264FF0F8
:103EE00000080AE00B460131B945C4F80011E65458
:103EF00084F8046111D017F8016FFF29F2D1D4E9D9
:103F0000423284F8FF8020469847D4F828310133A4
:103F1000C4F8283101210023E6E7EA68BF490132ED
:103F200006A80AF0EFF806A804F00AF810B306AEE7
:103F3000D4F8001106EB00094FF0000808E00B462A
:103F40000131B145C4F80011E75484F8047113D06D
:103F5000FF2916F8017BF2D1D4E9423284F8FF80C0
:103F600020469847D4F828310133C4F8283101217C
:103F70000023E6E7D4F80011FF290CD10026D4E98C
:103F8000423284F8FF6020469847D4F82831013344
:103F90003146C4F828314A1C7D23C4F800216354FB
:103FA00084F804316B68D4F81C11039A013B01F1C9
:103FB000FF3CFEF7BCBC3146AA682046FEF7C2FBB8
:103FC0006B68D4F81C11039A013B01F1FF3CFEF72A
:103FD000AEBC3146AA682046FEF7B4FB6B68D4F845
:103FE0001C11039A013B01F1FF3CFEF7A0BCAA683B
:103FF0008A49013206A80AF085F806A803F0A0FF56
:1040000010B306AED4F8001106EB00094FF000081B
:1040100008E00B460131B145C4F80011E75484F8BB
:10402000047113D0FF2916F8017BF2D1D4E9423292
:1040300084F8FF8020469847D4F828310133C4F82B
:10404000283101210023E6E7D4F80011FF290CD123
:104050000026D4E9423284F8FF6020469847D4F81D
:10406000283101333146C4F828314A1C7D23C4F875
:104070000021635484F804316B68D4F81C11039A4E
:10408000013B01F1FF3CFEF752BC3146EA68204695
:10409000FEF758FBD4F80011FF290CD10026D4E913
:1040A000423284F8FF6020469847D4F82831013323
:1040B0003146C4F828314A1C5D23C4F800216354FA
:1040C00084F804316B68D4F81C11039A013B01F1A8
:1040D000FF3CFEF72CBC3146EA682046FEF732FB77
:1040E000D4F80011FF290CD10026D4E9423284F81B
:1040F000FF6020469847D4F8283101333146C4F890
:1041000028314A1C5D23C4F80021635484F804312B
:104110006B68D4F81C11039A013B01F1FF3CFEF7D8
:1041200006BCD9F804603378613B192B1AD8FF29F3
:104130000DD10026D4E9423284F8FF60204698472A
:10414000D4F82831C4F800610133C4F82831D4F818
:1041500000212023511CC4F80011A35484F8043119
:10416000D9F804604346F21812F8012C202A08BF3F
:1041700008F1FF33002B01F03C81013ED4F800111F
:1041800006EB03094FF0000809E00B460131B14589
:10419000C4F80011E75484F8047100F05581FF2938
:1041A00016F8017FF1D1D4E9423284F8FF8020462D
:1041B0009847D4F828310133C4F82831012100236D
:1041C000E5E73146AA682046FEF7BCFA6B68D4F8EA
:1041D0001C11039A013B01F1FF3CFEF7A8BB3146DD
:1041E000AA682046FEF7AEFA6B68D4F81C11039A51
:1041F000013B01F1FF3CFEF79ABB3146AA6820461D
:10420000FEF7A0FA6B68D4F81C11039A013B01F188
:10421000FF3CFEF78CBB00BF542D0108042B0108A6
:10422000202B01086C2B0108802B01085C2B010856
:104230003146AA682046FEF785FA6B68D4F81C114F
:10424000039A013B01F1FF3CFEF771BB3146AA68BE
:104250002046FEF777FA6B68D4F81C11039A013BED
:1042600001F1FF3CFEF763BBDFF89C86AA6831468C
:104270002046FEF767FA08F1030AD4F800112D274B
:104280004FF000090AE00B460131C245C4F80011A5
:10429000E75484F8047111D018F8017FFF29F2D196
:1042A000D4E9423284F8FF9020469847D4F8283168
:1042B0000133C4F8283101210023E6E73146EA68DA
:1042C0002046FEF73FFA6B68D4F81C11039A013BB5
:1042D00001F1FF3CFEF72BBB3146AA682046FEF7F2
:1042E00031FA6B68D4F81C11039A013B01F1FF3CD1
:1042F000FEF71DBB3146AA682046FEF723FA6B681D
:10430000D4F81C11039A013B01F1FF3CFEF70FBBEF
:104310003146AA682046FEF715FA6B68D4F81C11DE
:10432000039A013B01F1FF3CFEF701BB3146AA684D
:104330002046FEF707FA6B68D4F81C11039A013B7C
:1043400001F1FF3CFEF7F3BA3146AA682046FEF7BA
:10435000F9F96B68D4F81C11039A013B01F1FF3C99
:10436000FEF7E5BA3146AA682046FEF7EBF96B681E
:10437000D4F81C11039A013B01F1FF3CFEF7D7BAB8
:104380003146AA682046FEF7DDF96B68D4F81C11A7
:10439000039A013B01F1FF3CFEF7C9BADFF86C85D7
:1043A000EA6831462046FEF7CDF908F1040AD4F850
:1043B000001120274FF000090AE00B460131C245E9
:1043C000C4F80011E75484F804711FD018F8017F75
:1043D000FF29F2D1D4E9423284F8FF902046984771
:1043E000D4F828310133C4F8283101210023E6E74D
:1043F0003146AA682046FEF7A5F96B68D4F81C116F
:10440000039A013B01F1FF3CFEF791BA3146AA68DD
:104410002046FEF797F96B68D4F81C11039A013B0C
:1044200001F1FF3CFEF783BA4A463146204601F0CF
:10443000D3F9FFF72CB96B68D4F81C11039A013B30
:1044400001F1FF3CFEF773BA6B68D4F81C11039AB4
:10445000013B01F1FF3CFEF76ABA019DD4F81C1143
:104460006B68039A013B01F1FF3CFEF760BA0F460F
:10447000EA6831462046D4F82861FEF763F9D4F89B
:1044800028319E426B6800F0ED83D4F81C11039A2A
:10449000013B01F1FF3CFEF74ABAAB680093BAF169
:1044A000000F7EF48FAA6B68D4F81C11039A013BAD
:1044B00001F1FF3CFEF73BBA2B782F2B00D0A94629
:1044C000D4F814A1FFF7BEB8D1E9026000283EF489
:1044D0002EAA3044D4F8001100F1FF39013E4FF00C
:1044E000000809E00B460131B145C4F80011E7545A
:1044F00084F8047100F06B81FF2916F8017FF1D177
:10450000D4E9423284F8FF8020469847D4F8283115
:104510000133C4F8283101210023E5E705F1080142
:104520002046FCF703FA0246002800F08B8503784A
:104530002F2B00F07C85D4F810713B68C4F8103143
:1045400031462046FEF7FEF86B68D4F81C21C4F80B
:10455000107102F1FF3C013B039AFEF7E8B9EE68E7
:104560003E44BE427EF6E3A94FF000080AE04B1C31
:10457000C4F8003104F8019084F804910137BE4278
:1045800040F22E81F31B032B97F8009002DDB9F166
:104590005F0F11D0D4F80011FF29E8D1D4E94232DD
:1045A00084F8FF8020469847D4F828310133C4F8B6
:1045B000283100210123DBE77B785F2BEAD1BB7830
:1045C000552BE7D1FA1C9642E4D9002004E00B46B3
:1045D000964203EB0010DDD0924612F8013BA3F1A6
:1045E00030015FFA81FEBEF1090FA3F1410CEED953
:1045F000BCF1050FA3F1610100F23085373BE7E71D
:10460000BD4E5F2706F105094FF000080AE00B4692
:104610000131B145C4F80011E75484F8047111D098
:1046200016F8017FFF29F2D1D4E9423284F8FF80E5
:1046300020469847D4F828310133C4F828310121A5
:104640000023E6E76B68D4F81C11039A013B01F1E3
:10465000FF3CFEF76CB9A94F742607F103090AE085
:104660000B460131B945C4F80011E65484F80461E1
:1046700011D017F8016FFF29F2D1D4E9423284F842
:10468000FF8020469847D4F828310133C4F82831F8
:1046900001210023E6E76B68D4F81C11039A013B63
:1046A00001F1FF3CFEF743B9D4F80011FEF795BDC8
:1046B0006B68D4F81C11039A013B01F1FF3CFEF733
:1046C00036B9AA688E49013206A809F01BFD06A872
:1046D00003F036FC10B306AED4F8001106EB000967
:1046E0004FF0000808E00B460131B145C4F8001155
:1046F000E75484F8047111D0FF2916F8017BF2D138
:10470000D4E9423284F8FF8020469847D4F8283113
:104710000133C4F8283101210023E6E76B68D4F89F
:104720001C11039A013B01F1FF3CFEF700B9424620
:1047300006A8734909F0E6FC06A803F001FC10B3D3
:1047400006AED4F8001106EB00094FF0000808E0AF
:104750000B460131B145C4F80011E75484F80471E7
:1047600011D0FF2916F8017BF2D1D4E9423284F846
:10477000FF8020469847D4F828310133C4F8283107
:1047800001210023E6E7D4F80031FF2B0FD10026EA
:10479000194684F8FF60D4E9423220469847D4F89D
:1047A0002831C4F800615A1CC4F828213346591C2A
:1047B0007D22C4F80011E25484F804216B68D4F817
:1047C0001C11039A013B01F1FF3CFEF7B0B86B6886
:1047D000D4F81C11039A013B01F1FF3CFEF7A7B886
:1047E0006B68D4F81C11039A013B01F1FF3CFEF702
:1047F0009EB86B68D4F81C11039A013B01F1FF3C91
:10480000FEF795B86B68D4F81C11039A013B01F1CF
:10481000FF3CFEF78CB89B681F7C002F3EF4E0AA9B
:10482000062F40F2EC84072F7EF4DAAAEB681A78A0
:10483000002A7EF4D5AADA68012A7EF4D1AA3C289F
:104840007EF4CEAA9B681B78302B00F0DA86312BE1
:104850007EF4C6AA04222B492046FBF709FE6B68AA
:10486000D4F81C11039A013B01F1FF3CFEF75FB83D
:10487000D4F80031FF2B0FD10027194684F8FF70C0
:10488000D4E9423220469847D4F82831C4F8007160
:104890005A1CC4F828213B46591C5B22C4F800115D
:1048A000E25484F804213146EA682046FDF74AFFC5
:1048B000D4F80031FF2B0FD10026194684F8FF6091
:1048C000D4E9423220469847D4F82831C4F8006130
:1048D0005A1CC4F828213346591C5D22C4F8001123
:1048E000E25484F804216B68D4F81C11039A013B4C
:1048F00001F1FF3CFEF71BB8782C0108002D0108E0
:10490000042B0108D02C0108542B0108182C010895
:10491000926831462046FDF715FFD4F8483113B1AF
:10492000069BC4F8103194F804313C2B00F09E84AF
:10493000D4F80031FF2B0FD10027194684F8FF70FF
:10494000D4E9423220469847D4F82831C4F800719F
:104950005A1CC4F828213B46591C3C22C4F80011BB
:10496000E25484F80421AB683146DA682046FDF74A
:10497000E9FE94F804313E2B00F05B84D4F800315A
:10498000FF2B0FD10026194684F8FF60D4E942328C
:1049900020469847D4F82831C4F800615A1CC4F85E
:1049A000282133463E22591CC4F80011E25484F8F1
:1049B0000421FFF742BAD8F80830E049D3F8009054
:1049C000484603F051F93B7810B9032B00F09A8563
:1049D000382B00F08485DA49484603F045F98246D1
:1049E000002800F03A85D749484603F03DF90028F1
:1049F00000F03A8331462046424601F001FDD2499B
:104A0000484603F031F9002800F01D824846CF499E
:104A100003F02AF9804600287EF491AAD4F80031E8
:104A2000FF2B0ED184F8FF0019462046D4E942320C
:104A30009847D4F82831C4F800815A1CC4F82821BA
:104A40004346581C4FF0280CC4F800013A4604F8BD
:104A500003C03146204684F804C1FDF773FED4F844
:104A60000031FF2B0FD10026194684F8FF60D4E9EE
:104A7000423220469847D4F82831C4F800615A1CC5
:104A8000C4F828213346591C2922C4F80011E254E5
:104A900084F804216B68D4F81C11039A013B01F1DE
:104AA000FF3CFDF744BF0022194684F8FF20204652
:104AB000D4E9423298472923237084F804312A78B4
:104AC000D4F82831012101333D2AC4F82831C4F833
:104AD00000117EF4B6A9D4F800212D23511CC4F88E
:104AE0000011A35484F80431FEF7ABB905F10C02B0
:104AF0003946204601F078F9AA68002A00F00184BE
:104B000039462046FDF71EFE6B68D4F81C11039A47
:104B1000013B01F1FF3CFDF70ABF31462A46204622
:104B200000F05AFEFEF793BBD4F80031FF2B0FD1F3
:104B30000026194684F8FF60D4E94232204698479F
:104B4000D4F82831C4F800615A1CC4F8282133462F
:104B50002022591CC4F80011E25484F80421FEF705
:104B600098BFD4F80031FF2B10D14FF0000919463F
:104B700084F8FF90D4E9423220469847D4F828318F
:104B8000C4F800915A1CC4F828214B462022591C15
:104B9000C4F80011E25484F80421FEF757BF6C4FAB
:104BA000D4F8001107F102090AE00B460131B945BA
:104BB000C4F8001104F8038084F804813EF412AFB5
:104BC000FF2917F8018BF0D1D4E9423284F8FFA015
:104BD00020469847D4F828310133C4F82831012100
:104BE0000023E4E75B4FD4F8001107F105094FF00B
:104BF000000A0AE00B460131B945C4F8001104F877
:104C0000038084F804813EF4C3AAFF2917F8018BBE
:104C1000F0D1D4E9423284F8FFA020469847D4F876
:104C200028310133C4F8283101210023E4E76B68FF
:104C3000D4F81C11039A013B01F1FF3CFDF777BE4C
:104C40003146AA682046FDF77DFD6B68D4F81C113B
:104C5000039A013B01F1FF3CFDF769BE0F46A946EF
:104C6000FEF7F0BCD4F80011D4F81C01039AB94245
:104C700003F1FF3300F1FF3C7DF459AE023FC4F86D
:104C80000071FDF754BE1B78A3F16301012903D91C
:104C9000723B012B3DF6D9AD3146204601F0B0FB09
:104CA000D4F80031FF2B0FD10027194684F8FF708C
:104CB000D4E9423220469847D4F82831C4F800712C
:104CC0005A1CC4F828213B46591C3C22C4F8001148
:104CD000E25484F80421EB681F4F9A68314620465D
:104CE000FDF730FD07F10209D4F800114FF0000A7A
:104CF0000AE00B46591CB945C4F8001104F80380BA
:104D000084F8048100F06981FF2917F8018BF0D144
:104D1000D4E9423284F8FFA020469847D4F82831DD
:104D20000133C4F828310023E4E70C4FD4F8001114
:104D300007F10D0A4FF0000B1CE000BF9C2C01088E
:104D4000A02C0108A42A0108A42C0108C42F0108E2
:104D5000F02A0108682C0108A82C0108F42A01088F
:104D60000B460131BA45C4F8001104F8039084F8E9
:104D7000049111D0FF2917F8019BF1D1D4E94232F7
:104D800084F8FFB020469847D4F828310133C4F89E
:104D9000283101210023E5E7D8F80C20C64901326B
:104DA00006A809F0AFF906A803F0CAF818B306AFD1
:104DB000D4F8001107EB000A4FF0000B09E00B4696
:104DC0000131BA45C4F8001104F8039084F8049145
:104DD00011D0FF2917F8019BF1D1D4E9423284F8B0
:104DE000FFB020469847D4F828310133C4F8283161
:104DF00001210023E5E7B14FD4F8001107F1030AC0
:104E00004FF0000B09E00B460131BA45C4F8001120
:104E100004F8039084F8049111D0FF2917F8019B3E
:104E2000F1D1D4E9423284F8FFB020469847D4F853
:104E300028310133C4F8283101210023E5E7D8F8EF
:104E40000880FEF7D6BD3A4631462046FDF77AFC8B
:104E50006B68D4F81C11039A013B01F1FF3CFDF78C
:104E600066BDFF297FF437AE4FF00008D4E9423227
:104E700084F8FF8020469847D4F82831C4F8008190
:104E80000133C4F8283126E606A9C4F814110693A4
:104E90003946D4F8103109932046CDE90756FDF77D
:104EA00051FC089E069BC4F81431002E40F0448348
:104EB000D4F80031FF2B0ED1194684F8FF60D4E9F5
:104EC000423220469847D4F82831C4F800615A1C71
:104ED000C4F8282133462022591CC4F80011E2549A
:104EE00084F80421FEF76DBCD8F80C8098F80030E7
:104EF000462B00F02A8309EB071C98F800304C2B56
:104F0000A3F11C01A3F14E0203D01BD804293EF6E5
:104F1000FBAC042FACF1100B0CF1100A00F0068171
:104F20009BE80F008CE80F0000234AF81C8C4AF81D
:104F3000183CD8F80880C4F814C101374AE905EBD9
:104F4000D446DAE7012A3EF6DFACE2E7D4E94C7E4C
:104F5000BEF1000F0DDD3B68994505D1DBE157F847
:104F60003030994500F0D6810130864507EBC00A04
:104F7000F5D1D4F838319E4580F289830EF10103D2
:104F800007EBCE00C4F8343147F83E90D4F81071E6
:104F90000430002F00F08983D4E95013994201F1C5
:104FA000010E80F27483D4F83C31C4F840E103EB85
:104FB000C1037968596003603F681846E9E7012337
:104FC000C4F81831FEF7B2B96B68D4F81C11039A13
:104FD000013B01F1FF3CFDF7AABCEB683146DA6802
:104FE0002046FDF7AFFBD4F80031FF2B0FD1002690
:104FF000194684F8FF60D4E9423220469847D4F835
:105000002831C4F800615A1CC4F828213346591CC1
:105010002922C4F80011E25484F804216B68D4F802
:105020001C11039A013B01F1FF3CFDF780BCD4F851
:1050300024110029FFF67FAAFBF762FC0246002834
:105040007FF479AA0123C4F818316B68D4F81C11D5
:10505000039A013B01F1FF3CFDF769BC052900F211
:10506000E182573BFFF7B4BA064601E0FF683FB361
:105070003B782F2B24D1BB6813B31A784A2A18BF68
:105080000136F3D199682046FBF760FC002800F058
:10509000C68203782F2B40F0C282836853B100236D
:1050A00004E002782F2A05D182681AB1C068013362
:1050B0000028F6D11E44D9E7042B0108082B01086B
:1050C000324606A8CF4909F01DF806A802F038FFBD
:1050D00008B306AED4F8001137184FF0000909E004
:1050E0000B46591CB742C4F8001104F8038084F839
:1050F000048110D0FF2916F8018BF1D1D4E9423296
:1051000084F8FF9020469847D4F828310133C4F83A
:1051100028310023E5E76B68D4F81C11039A013BA2
:1051200001F1FF3CFDF703BCC4F814310123C4F8BE
:105130001831FEF72ABC05F10C03AA683146204657
:1051400001F0E8F90746002840F04382D5E902A2C1
:10515000DAF80810D3680868AB49D2F808B0D3E988
:10516000029802F081FD002840F0F6815A4631464F
:10517000204601F081F952463146204601F040F9BF
:105180004A463146204601F077F903229F492046DE
:10519000FBF76EF942463146204601F06DF96B6827
:1051A000D4F81C11039A013B01F1FF3CFDF7BFBB92
:1051B000D9F80820FEF756BA9549D9F8080008F042
:1051C000C3FF00287EF438AC3146EA682046FDF77C
:1051D000B9FA02228F492046FBF74AF9FEF771BC63
:1051E00040468D4902F040FD002840F00482EB6803
:1051F0003146DA68204601F03FF9FDF78CBBEB68D9
:1052000093F80080B8F1000F7DF4EAAD3D2800F07E
:10521000B2823146EA682046023FFDF793FA042F36
:1052200000F2C482DFE817F083025F0251024302FA
:105230002502D4F80031FF2B0FD10026194684F83F
:10524000FF60D4E9423220469847D4F82831C4F8A8
:1052500000615A1CC4F8282133462022591CC4F886
:105260000011E25484F80421FFF788BBD4F8003120
:10527000FF2B0FD10027194684F8FF70D4E9423282
:1052800020469847D4F82831C4F800715A1CC4F855
:1052900028213B462022591CC4F80011E25484F80E
:1052A0000421FFF745BB9B689A68012A7DF438AB5F
:1052B0005B681B783E2B7DF433ABD4F80031FF2BB9
:1052C0000FD10026194684F8FF60D4E94232204607
:1052D0009847D4F82831C4F800615A1CC4F8282132
:1052E0003346591C2922C4F80011E25484F80421E1
:1052F0006B68D4F81C11039A013B01F1FF3CFDF7E8
:1053000016BB6B68D4F81C11039A013B01F1FF3CFA
:10531000FDF70DBB57460B4602E05B68002B7FD0C4
:105320001A68914503D09542F7D18B42F5D009F127
:1053300008012046FBF7FAFA8146A0B1002799F848
:1053400000302F2B7EF46FA9D4F824110029FFF62A
:10535000B3A84846FBF7D4FA814600287EF463A937
:105360000FB1C4F810810123C4F818316B68D4F868
:105370001C11039A013B01F1FF3CFDF7D8BA9A6872
:10538000916801297DF470AA526812783E2A7DF452
:105390006BAAD4F80031FF2B0ED184F8FF00194618
:1053A0002046D4E942329847D4F82831C4F8007135
:1053B0005A1CC4F828213B46591C2822C4F8001165
:1053C000E25484F80421AB68FDF74EBA3146AA686E
:1053D000204601F051F8032210492046FBF748F817
:1053E0006B68D4F81C11039A013B01F1FF3CFDF7F7
:1053F0009EBA6B68D4F81C11039A013B01F1FF3C83
:10540000FDF795BA042B0108B42A0108B02C010855
:105410000C2B0108142B0108A82A0108F42C010800
:105420007B68D4F81081C4F8103109F108012046D6
:10543000FBF77CFA8146002893D001277FE7D368E9
:105440001B78292B1CBF0123C4F818319268314600
:10545000204601F011F8FDF717BA39462046FBF750
:1054600075FA30B908E0836833B1C0680AF1010AFF
:1054700010B103782F2BF6D0524606A8D04908F079
:1054800041FE06A802F05CFD00B306AE37184FF0EF
:105490000008D4F8001116F8019BFF290DD1D4E9BA
:1054A000423284F8FF8020469847D4F82831C4F867
:1054B00000810133C4F8283100214B1CB742C4F8E5
:1054C000003104F8019084F80491E2D16B68D4F8BB
:1054D0001C11039A013B01F1FF3CFDF728BABA68A1
:1054E0003146204600F0C8FF42463146204600F0D3
:1054F00087FF6B68D4F81C11039A013B01F1FF3C54
:10550000FDF715BABB681A78012A7FF464AAFA6815
:105510001278292A08BF1F46FFF75DBAEA683146AC
:105520002046FDF70FF9089B009AC4F81421002BC0
:105530003DF4F4AEFDF7FABE6B68D4F81C11039A83
:10554000013B01F1FF3CFDF7F2B9D8F80880B8F152
:10555000000F3FF4EBADCEE404229A492046FAF75F
:1055600087FFDBF80830F3B15A463146204600F099
:1055700083FFD4F80031FF2B0ED1194684F8FF7059
:10558000D4E9423220469847D4F82831C4F8007153
:105590005A1CC4F828213B462022591CC4F800118B
:1055A000E25484F804214A4631462046FDF7CAF801
:1055B000B8F1000F16D042463146204600F05CFF9D
:1055C0006B68D4F81C11039A013B01F1FF3CFDF715
:1055D000AEB96B68D4F81C11039A013B01F1FF3C92
:1055E000FDF7A5B96B68D4F81C11039A013B01F1D2
:1055F000FF3CFDF79CB93A463146204600F000FFDB
:10560000F5E5052270492046FAF732FF6B68D4F8B9
:105610001C11039A013B01F1FF3CFDF788B90023FF
:105620001E4423E556457EF6B5AF5F2B7EF4B2AF40
:10563000FF283EF6AFAFD4F80011FF295FFA80F9DA
:105640000DD1D4E9423284F8FF8020469847D4F83F
:105650002831C4F800810133C4F8283100214B1CE3
:10566000C4F80031574604F8019084F80491FEF71D
:1056700085BF032255492046FAF7FAFE6B68D4F835
:105680001C11039A013B01F1FF3CFDF750B90123C6
:10569000C4F818316B68013BFDF749B94246314601
:1056A000204600F0ADFEFDF74ABC07603FE602224F
:1056B00047492046FAF7DCFE6B68D4F81C11039AC0
:1056C000013B01F1FF3CFDF732B90222414920467E
:1056D000FAF7CEFE6B68D4F81C11039A013B01F176
:1056E000FF3CFDF724B9D4F80031FF2B0FD1002681
:1056F000194684F8FF60D4E9423220469847D4F82E
:105700002831C4F800615A1CC4F828213346591CBA
:105710006C22C4F80011E25484F804216B68D4F8B8
:105720001C11039A013B01F1FF3CFDF700B9D4F8CD
:105730000031FF2B0FD10026194684F8FF60D4E911
:10574000423220469847D4F82831C4F800615A1CE8
:10575000C4F828213346591C7522C4F80011E254BC
:1057600084F804216B68D4F81C11039A013B01F101
:10577000FF3CFDF7DCB8D4F80031FF2B0ED1194601
:1057800084F8FF80D4E9423220469847D4F8283183
:10579000C4F800815A1CC4F8282143462D22591C04
:1057A000C4F80011E25484F8042132E56B68D4F89F
:1057B0001C11039A013B01F1FF3CFDF7B8B800BF93
:1057C000042B0108B42C0108C82C0108C42C0108C2
:1057D000C02C0108BC2C01081378033B2DE9F047CD
:1057E000154604460E464C2B00F26282DFE813F0A9
:1057F0008600600260026002600260026002600275
:105800006002600260026002600260026002600288
:105810006002600260026002600260024F01720179
:1058200095014F01720195018B009800A500B80009
:105830001E01B801FB002C016002600260026002E0
:105840004D006002D50060026002600260026002EA
:105850006002600260026002600260026002600238
:105860006002600260026002600260026002600228
:105870006002600260026002600260026002600218
:10588000600202026002DC013A0290F80431282B27
:105890000BD0D0F80011FF2900F095824A1C20237C
:1058A000C4F80021635484F80431D64FAA68314605
:1058B0002046FCF747FF07F10208D4F800113A250B
:1058C00000260BE00B4601314745C4F80011E554B2
:1058D00084F8045100F0B68017F8015FFF29F1D178
:1058E000D4E9423284F8FF6020469847D4F8283142
:1058F0000133C4F8283101210023E5E7AA68BDE897
:10590000F047FCF71FBFD0F80031FF2B00F01B82DF
:105910002022591CC4F80011E25484F8042187E0C5
:10592000D0F80031FF2B00F0FE812022591CC4F872
:105930000011E25484F8042114E1D0F80031FF2B67
:1059400000F011822022591CC4F80011E25484F89E
:1059500004213146EA682046BDE8F047FCF7F2BE74
:1059600011F004066ED1D0F80031FF2B0DD119468D
:1059700080F8FF60D0E942329847D4F82831C4F863
:1059800000615A1CC4F8282133462A22591CC4F845
:105990000011E25484F8042154E0DFF88882D0F842
:1059A000001108F1090A20274FF000090BE00B460F
:1059B0000131C245C4F80011E75484F8047100F0C5
:1059C0009A8118F8017FFF29F1D1D4E9423284F895
:1059D000FF9020469847D4F828310133C4F8283185
:1059E00001210023E5E7884ED0F8001106F10708F1
:1059F000632500270AE00B4601314645C4F8001133
:105A0000E55484F804511DD016F8015FFF29F2D146
:105A1000D4E9423284F8FF7020469847D4F8283100
:105A20000133C4F8283101210023E6E7D0F8001142
:105A3000FF2900F0A8814A1C2623C4F800216354E2
:105A400084F80431BDE8F087704ED0F8001106F1FB
:105A50000908692500270AE00B460131B045C4F862
:105A60000011E55484F80451ECD016F8015FFF29C9
:105A7000F2D1D4E9423284F8FF7020469847D4F836
:105A800028310133C4F8283101210023E6E7604EB4
:105A9000D0F8001106F10808202500270AE00B467F
:105AA0000131B045C4F80011E55484F80451C9D05F
:105AB00016F8015FFF29F2D1D4E9423284F8FF7071
:105AC00020469847D4F828310133C4F82831012101
:105AD0000023E6E74F4ED0F8001106F10808202514
:105AE00000270AE00B460131B045C4F80011E55427
:105AF00084F80451A6D016F8015FFF29F2D1D4E949
:105B0000423284F8FF7020469847D4F82831013398
